{
  "contractName": "Auction",
  "abi": [
    {
      "inputs": [
        {
          "internalType": "address",
          "name": "_owner",
          "type": "address"
        },
        {
          "internalType": "uint256",
          "name": "_bidIncrement",
          "type": "uint256"
        },
        {
          "internalType": "uint256",
          "name": "_bidDuration",
          "type": "uint256"
        },
        {
          "internalType": "string",
          "name": "_imgUrl",
          "type": "string"
        }
      ],
      "stateMutability": "nonpayable",
      "type": "constructor"
    },
    {
      "anonymous": false,
      "inputs": [
        {
          "indexed": false,
          "internalType": "address",
          "name": "bidder",
          "type": "address"
        },
        {
          "indexed": false,
          "internalType": "uint256",
          "name": "bid",
          "type": "uint256"
        },
        {
          "indexed": false,
          "internalType": "address",
          "name": "highestBidder",
          "type": "address"
        },
        {
          "indexed": false,
          "internalType": "uint256",
          "name": "highestBid",
          "type": "uint256"
        },
        {
          "indexed": false,
          "internalType": "uint256",
          "name": "highestBindingBid",
          "type": "uint256"
        }
      ],
      "name": "LogBid",
      "type": "event"
    },
    {
      "anonymous": false,
      "inputs": [],
      "name": "LogCanceled",
      "type": "event"
    },
    {
      "anonymous": false,
      "inputs": [
        {
          "indexed": false,
          "internalType": "address",
          "name": "withdrawer",
          "type": "address"
        },
        {
          "indexed": false,
          "internalType": "address",
          "name": "withdrawalAccount",
          "type": "address"
        },
        {
          "indexed": false,
          "internalType": "uint256",
          "name": "amount",
          "type": "uint256"
        }
      ],
      "name": "LogWithdrawal",
      "type": "event"
    },
    {
      "inputs": [],
      "name": "bidDuration",
      "outputs": [
        {
          "internalType": "uint256",
          "name": "",
          "type": "uint256"
        }
      ],
      "stateMutability": "view",
      "type": "function"
    },
    {
      "inputs": [],
      "name": "bidIncrement",
      "outputs": [
        {
          "internalType": "uint256",
          "name": "",
          "type": "uint256"
        }
      ],
      "stateMutability": "view",
      "type": "function"
    },
    {
      "inputs": [],
      "name": "canceled",
      "outputs": [
        {
          "internalType": "bool",
          "name": "",
          "type": "bool"
        }
      ],
      "stateMutability": "view",
      "type": "function"
    },
    {
      "inputs": [],
      "name": "endBlock",
      "outputs": [
        {
          "internalType": "uint256",
          "name": "",
          "type": "uint256"
        }
      ],
      "stateMutability": "view",
      "type": "function"
    },
    {
      "inputs": [
        {
          "internalType": "address",
          "name": "",
          "type": "address"
        }
      ],
      "name": "fundsByBidder",
      "outputs": [
        {
          "internalType": "uint256",
          "name": "",
          "type": "uint256"
        }
      ],
      "stateMutability": "view",
      "type": "function"
    },
    {
      "inputs": [],
      "name": "highestBidder",
      "outputs": [
        {
          "internalType": "address",
          "name": "",
          "type": "address"
        }
      ],
      "stateMutability": "view",
      "type": "function"
    },
    {
      "inputs": [],
      "name": "highestBindingBid",
      "outputs": [
        {
          "internalType": "uint256",
          "name": "",
          "type": "uint256"
        }
      ],
      "stateMutability": "view",
      "type": "function"
    },
    {
      "inputs": [],
      "name": "imgUrl",
      "outputs": [
        {
          "internalType": "string",
          "name": "",
          "type": "string"
        }
      ],
      "stateMutability": "view",
      "type": "function"
    },
    {
      "inputs": [],
      "name": "owner",
      "outputs": [
        {
          "internalType": "address",
          "name": "",
          "type": "address"
        }
      ],
      "stateMutability": "view",
      "type": "function"
    },
    {
      "inputs": [],
      "name": "startBlock",
      "outputs": [
        {
          "internalType": "uint256",
          "name": "",
          "type": "uint256"
        }
      ],
      "stateMutability": "view",
      "type": "function"
    },
    {
      "inputs": [],
      "name": "getHighestBid",
      "outputs": [
        {
          "internalType": "uint256",
          "name": "",
          "type": "uint256"
        }
      ],
      "stateMutability": "view",
      "type": "function"
    },
    {
      "inputs": [],
      "name": "placeBid",
      "outputs": [
        {
          "internalType": "bool",
          "name": "success",
          "type": "bool"
        }
      ],
      "stateMutability": "payable",
      "type": "function"
    },
    {
      "inputs": [],
      "name": "cancelAuction",
      "outputs": [
        {
          "internalType": "bool",
          "name": "success",
          "type": "bool"
        }
      ],
      "stateMutability": "nonpayable",
      "type": "function"
    },
    {
      "inputs": [],
      "name": "withdraw",
      "outputs": [
        {
          "internalType": "bool",
          "name": "success",
          "type": "bool"
        }
      ],
      "stateMutability": "nonpayable",
      "type": "function"
    }
  ],
  "bytecode": "0x60806040523480156200001157600080fd5b5060405162001d6438038062001d6483398181016040528101906200003791906200046c565b600082116200007d576040517f08c379a0000000000000000000000000000000000000000000000000000000008152600401620000749062000584565b60405180910390fd5b600073ffffffffffffffffffffffffffffffffffffffff168473ffffffffffffffffffffffffffffffffffffffff1603620000ef576040517f08c379a0000000000000000000000000000000000000000000000000000000008152600401620000e690620005f6565b60405180910390fd5b836000806101000a81548173ffffffffffffffffffffffffffffffffffffffff021916908373ffffffffffffffffffffffffffffffffffffffff16021790555082600181905550436002819055508160038190555060035460025462000156919062000647565b6004819055508060059080519060200190620001749291906200017f565b505050505062000708565b8280546200018d90620006d3565b90600052602060002090601f016020900481019282620001b15760008555620001fd565b82601f10620001cc57805160ff1916838001178555620001fd565b82800160010185558215620001fd579182015b82811115620001fc578251825591602001919060010190620001df565b5b5090506200020c919062000210565b5090565b5b808211156200022b57600081600090555060010162000211565b5090565b6000604051905090565b600080fd5b600080fd5b600073ffffffffffffffffffffffffffffffffffffffff82169050919050565b6000620002708262000243565b9050919050565b620002828162000263565b81146200028e57600080fd5b50565b600081519050620002a28162000277565b92915050565b6000819050919050565b620002bd81620002a8565b8114620002c957600080fd5b50565b600081519050620002dd81620002b2565b92915050565b600080fd5b600080fd5b6000601f19601f8301169050919050565b7f4e487b7100000000000000000000000000000000000000000000000000000000600052604160045260246000fd5b6200033882620002ed565b810181811067ffffffffffffffff821117156200035a5762000359620002fe565b5b80604052505050565b60006200036f6200022f565b90506200037d82826200032d565b919050565b600067ffffffffffffffff821115620003a0576200039f620002fe565b5b620003ab82620002ed565b9050602081019050919050565b60005b83811015620003d8578082015181840152602081019050620003bb565b83811115620003e8576000848401525b50505050565b600062000405620003ff8462000382565b62000363565b905082815260208101848484011115620004245762000423620002e8565b5b62000431848285620003b8565b509392505050565b600082601f830112620004515762000450620002e3565b5b815162000463848260208601620003ee565b91505092915050565b6000806000806080858703121562000489576200048862000239565b5b6000620004998782880162000291565b9450506020620004ac87828801620002cc565b9350506040620004bf87828801620002cc565b925050606085015167ffffffffffffffff811115620004e357620004e26200023e565b5b620004f18782880162000439565b91505092959194509250565b600082825260208201905092915050565b7f426c6f636b206475726174696f6e206d757374206265207374726963746c792060008201527f706f736974697665000000000000000000000000000000000000000000000000602082015250565b60006200056c602883620004fd565b915062000579826200050e565b604082019050919050565b600060208201905081810360008301526200059f816200055d565b9050919050565b7f4f776e6572206d75737420626520612076616c69642061646472657373000000600082015250565b6000620005de601d83620004fd565b9150620005eb82620005a6565b602082019050919050565b600060208201905081810360008301526200061181620005cf565b9050919050565b7f4e487b7100000000000000000000000000000000000000000000000000000000600052601160045260246000fd5b60006200065482620002a8565b91506200066183620002a8565b9250827fffffffffffffffffffffffffffffffffffffffffffffffffffffffffffffffff0382111562000699576200069862000618565b5b828201905092915050565b7f4e487b7100000000000000000000000000000000000000000000000000000000600052602260045260246000fd5b60006002820490506001821680620006ec57607f821691505b602082108103620007025762000701620006a4565b5b50919050565b61164c80620007186000396000f3fe6080604052600436106100dd5760003560e01c806391f901571161007f578063d68387c711610059578063d68387c7146102a2578063ecfc7ecc146102cd578063f5b56c56146102eb578063f6b45eb714610316576100dd565b806391f901571461020f578063b3cc167a1461023a578063ce10cf8014610265576100dd565b806348cd4cb1116100bb57806348cd4cb1146101635780634979440a1461018e5780638da5cb5b146101b95780638fa8b790146101e4576100dd565b8063083c6323146100e25780633ccfd60b1461010d5780633f9942ff14610138575b600080fd5b3480156100ee57600080fd5b506100f7610341565b6040516101049190610ed2565b60405180910390f35b34801561011957600080fd5b50610122610347565b60405161012f9190610f08565b60405180910390f35b34801561014457600080fd5b5061014d610755565b60405161015a9190610f08565b60405180910390f35b34801561016f57600080fd5b50610178610768565b6040516101859190610ed2565b60405180910390f35b34801561019a57600080fd5b506101a361076e565b6040516101b09190610ed2565b60405180910390f35b3480156101c557600080fd5b506101ce6107d7565b6040516101db9190610f64565b60405180910390f35b3480156101f057600080fd5b506101f96107fb565b6040516102069190610f08565b60405180910390f35b34801561021b57600080fd5b5061022461097c565b6040516102319190610f64565b60405180910390f35b34801561024657600080fd5b5061024f6109a2565b60405161025c9190610ed2565b60405180910390f35b34801561027157600080fd5b5061028c60048036038101906102879190610fb0565b6109a8565b6040516102999190610ed2565b60405180910390f35b3480156102ae57600080fd5b506102b76109c0565b6040516102c49190611076565b60405180910390f35b6102d5610a4e565b6040516102e29190610f08565b60405180910390f35b3480156102f757600080fd5b50610300610e91565b60405161030d9190610ed2565b60405180910390f35b34801561032257600080fd5b5061032b610e97565b6040516103389190610ed2565b60405180910390f35b60045481565b600060035460025461035991906110c7565b431015806103735750600660009054906101000a900460ff165b6103b2576040517f08c379a00000000000000000000000000000000000000000000000000000000081526004016103a99061118f565b60405180910390fd5b600080600660009054906101000a900460ff161561041457339150600960008373ffffffffffffffffffffffffffffffffffffffff1673ffffffffffffffffffffffffffffffffffffffff168152602001908152602001600020549050610668565b60008054906101000a900473ffffffffffffffffffffffffffffffffffffffff1673ffffffffffffffffffffffffffffffffffffffff163373ffffffffffffffffffffffffffffffffffffffff16036104b157600860009054906101000a900473ffffffffffffffffffffffffffffffffffffffff16915060075490506001600a60006101000a81548160ff021916908315150217905550610667565b600860009054906101000a900473ffffffffffffffffffffffffffffffffffffffff1673ffffffffffffffffffffffffffffffffffffffff163373ffffffffffffffffffffffffffffffffffffffff160361062057600860009054906101000a900473ffffffffffffffffffffffffffffffffffffffff169150600a60009054906101000a900460ff16156105a95760096000600860009054906101000a900473ffffffffffffffffffffffffffffffffffffffff1673ffffffffffffffffffffffffffffffffffffffff1673ffffffffffffffffffffffffffffffffffffffff16815260200190815260200160002054905061061b565b60075460096000600860009054906101000a900473ffffffffffffffffffffffffffffffffffffffff1673ffffffffffffffffffffffffffffffffffffffff1673ffffffffffffffffffffffffffffffffffffffff1681526020019081526020016000205461061891906111af565b90505b610666565b339150600960008373ffffffffffffffffffffffffffffffffffffffff1673ffffffffffffffffffffffffffffffffffffffff1681526020019081526020016000205490505b5b5b60008111610679576106786111e3565b5b80600960008473ffffffffffffffffffffffffffffffffffffffff1673ffffffffffffffffffffffffffffffffffffffff16815260200190815260200160002060008282546106c891906111af565b925050819055503373ffffffffffffffffffffffffffffffffffffffff166108fc829081150290604051600060405180830381858888f19350505050610711576107106111e3565b5b7f0ec497a8ae5b1ba29c60470ef651def995fac3deebbdcc56c47a4e5f51a4c2bd33838360405161074493929190611212565b60405180910390a160019250505090565b600660009054906101000a900460ff1681565b60025481565b600060096000600860009054906101000a900473ffffffffffffffffffffffffffffffffffffffff1673ffffffffffffffffffffffffffffffffffffffff1673ffffffffffffffffffffffffffffffffffffffff16815260200190815260200160002054905090565b60008054906101000a900473ffffffffffffffffffffffffffffffffffffffff1681565b60008060009054906101000a900473ffffffffffffffffffffffffffffffffffffffff1673ffffffffffffffffffffffffffffffffffffffff163373ffffffffffffffffffffffffffffffffffffffff161461088c576040517f08c379a000000000000000000000000000000000000000000000000000000000815260040161088390611295565b60405180910390fd5b60035460025461089c91906110c7565b4311156108de576040517f08c379a00000000000000000000000000000000000000000000000000000000081526004016108d590611301565b60405180910390fd5b600660009054906101000a900460ff161561092e576040517f08c379a00000000000000000000000000000000000000000000000000000000081526004016109259061136d565b60405180910390fd5b6001600660006101000a81548160ff0219169083151502179055507f462b6ca7f632601af1295aeb320851f50e8e630a309173f23535845ea4bfb3b960405160405180910390a16001905090565b600860009054906101000a900473ffffffffffffffffffffffffffffffffffffffff1681565b60015481565b60096020528060005260406000206000915090505481565b600580546109cd906113bc565b80601f01602080910402602001604051908101604052809291908181526020018280546109f9906113bc565b8015610a465780601f10610a1b57610100808354040283529160200191610a46565b820191906000526020600020905b815481529060010190602001808311610a2957829003601f168201915b505050505081565b60006002544311610a94576040517f08c379a0000000000000000000000000000000000000000000000000000000008152600401610a8b90611439565b60405180910390fd5b600354600254610aa491906110c7565b431115610ae6576040517f08c379a0000000000000000000000000000000000000000000000000000000008152600401610add90611301565b60405180910390fd5b600660009054906101000a900460ff1615610b36576040517f08c379a0000000000000000000000000000000000000000000000000000000008152600401610b2d9061136d565b60405180910390fd5b60008054906101000a900473ffffffffffffffffffffffffffffffffffffffff1673ffffffffffffffffffffffffffffffffffffffff163373ffffffffffffffffffffffffffffffffffffffff1603610bc4576040517f08c379a0000000000000000000000000000000000000000000000000000000008152600401610bbb906114a5565b60405180910390fd5b60003411610c07576040517f08c379a0000000000000000000000000000000000000000000000000000000008152600401610bfe90611511565b60405180910390fd5b600034600960003373ffffffffffffffffffffffffffffffffffffffff1673ffffffffffffffffffffffffffffffffffffffff16815260200190815260200160002054610c5491906110c7565b90506007548111610c9a576040517f08c379a0000000000000000000000000000000000000000000000000000000008152600401610c91906115a3565b60405180910390fd5b600060096000600860009054906101000a900473ffffffffffffffffffffffffffffffffffffffff1673ffffffffffffffffffffffffffffffffffffffff1673ffffffffffffffffffffffffffffffffffffffff16815260200190815260200160002054905081600960003373ffffffffffffffffffffffffffffffffffffffff1673ffffffffffffffffffffffffffffffffffffffff16815260200190815260200160002081905550808211610d6d57610d6260015483610d5c91906110c7565b82610e9d565b600781905550610e25565b600860009054906101000a900473ffffffffffffffffffffffffffffffffffffffff1673ffffffffffffffffffffffffffffffffffffffff163373ffffffffffffffffffffffffffffffffffffffff1614610e215733600860006101000a81548173ffffffffffffffffffffffffffffffffffffffff021916908373ffffffffffffffffffffffffffffffffffffffff160217905550610e1a8260015483610e1591906110c7565b610e9d565b6007819055505b8190505b7ff152f4ff5e488c55370a2d53925a55055228ebd8ec95bd0251bbb299e48786b03383600860009054906101000a900473ffffffffffffffffffffffffffffffffffffffff1684600754604051610e809594939291906115c3565b60405180910390a160019250505090565b60075481565b60035481565b600081831015610eaf57829050610eb3565b8190505b92915050565b6000819050919050565b610ecc81610eb9565b82525050565b6000602082019050610ee76000830184610ec3565b92915050565b60008115159050919050565b610f0281610eed565b82525050565b6000602082019050610f1d6000830184610ef9565b92915050565b600073ffffffffffffffffffffffffffffffffffffffff82169050919050565b6000610f4e82610f23565b9050919050565b610f5e81610f43565b82525050565b6000602082019050610f796000830184610f55565b92915050565b600080fd5b610f8d81610f43565b8114610f9857600080fd5b50565b600081359050610faa81610f84565b92915050565b600060208284031215610fc657610fc5610f7f565b5b6000610fd484828501610f9b565b91505092915050565b600081519050919050565b600082825260208201905092915050565b60005b83811015611017578082015181840152602081019050610ffc565b83811115611026576000848401525b50505050565b6000601f19601f8301169050919050565b600061104882610fdd565b6110528185610fe8565b9350611062818560208601610ff9565b61106b8161102c565b840191505092915050565b60006020820190508181036000830152611090818461103d565b905092915050565b7f4e487b7100000000000000000000000000000000000000000000000000000000600052601160045260246000fd5b60006110d282610eb9565b91506110dd83610eb9565b9250827fffffffffffffffffffffffffffffffffffffffffffffffffffffffffffffffff0382111561111257611111611098565b5b828201905092915050565b7f41756374696f6e206d757374206861766520656e646564206f72206265656e2060008201527f63616e63656c6564000000000000000000000000000000000000000000000000602082015250565b6000611179602883610fe8565b91506111848261111d565b604082019050919050565b600060208201905081810360008301526111a88161116c565b9050919050565b60006111ba82610eb9565b91506111c583610eb9565b9250828210156111d8576111d7611098565b5b828203905092915050565b7f4e487b7100000000000000000000000000000000000000000000000000000000600052600160045260246000fd5b60006060820190506112276000830186610f55565b6112346020830185610f55565b6112416040830184610ec3565b949350505050565b7f53656e646572206d757374206265206f776e6572000000000000000000000000600082015250565b600061127f601483610fe8565b915061128a82611249565b602082019050919050565b600060208201905081810360008301526112ae81611272565b9050919050565b7f41756374696f6e2063616e6e6f74206861766520656e64656400000000000000600082015250565b60006112eb601983610fe8565b91506112f6826112b5565b602082019050919050565b6000602082019050818103600083015261131a816112de565b9050919050565b7f41756374696f6e2063616e6e6f742062652063616e63656c6564000000000000600082015250565b6000611357601a83610fe8565b915061136282611321565b602082019050919050565b600060208201905081810360008301526113868161134a565b9050919050565b7f4e487b7100000000000000000000000000000000000000000000000000000000600052602260045260246000fd5b600060028204905060018216806113d457607f821691505b6020821081036113e7576113e661138d565b5b50919050565b7f41756374696f6e206d7573742068617665207374617274656400000000000000600082015250565b6000611423601983610fe8565b915061142e826113ed565b602082019050919050565b6000602082019050818103600083015261145281611416565b9050919050565b7f53656e6465722063616e6e6f74206265206f776e657200000000000000000000600082015250565b600061148f601683610fe8565b915061149a82611459565b602082019050919050565b600060208201905081810360008301526114be81611482565b9050919050565b7f4269642076616c7565206d757374206265203e20300000000000000000000000600082015250565b60006114fb601583610fe8565b9150611506826114c5565b602082019050919050565b6000602082019050818103600083015261152a816114ee565b9050919050565b7f4269642076616c7565206d7573742062652061626f76652070726576696f757360008201527f2062696400000000000000000000000000000000000000000000000000000000602082015250565b600061158d602483610fe8565b915061159882611531565b604082019050919050565b600060208201905081810360008301526115bc81611580565b9050919050565b600060a0820190506115d86000830188610f55565b6115e56020830187610ec3565b6115f26040830186610f55565b6115ff6060830185610ec3565b61160c6080830184610ec3565b969550505050505056fea2646970667358221220beba3a2efc9f17e366a631d6a095a28c3d0cba208db1ef1b073fd4eb25b8166c64736f6c634300080d0033",
  "immutableReferences": {},
  "source": "// SPDX-License-Identifier: MIT\npragma solidity >=0.4.22 <0.9.0;\n\ncontract Auction {\n    // static\n    address public owner;\n    uint256 public bidIncrement;\n    // uint256 public instantBuyout;\n    uint256 public startBlock;\n    uint256 public bidDuration;\n    uint256 public endBlock;\n    string public imgUrl;\n\n    // state\n    bool public canceled;\n    uint256 public highestBindingBid;\n    address public highestBidder;\n    mapping(address => uint256) public fundsByBidder;\n    bool ownerHasWithdrawn;\n\n    event LogBid(\n        address bidder,\n        uint256 bid,\n        address highestBidder,\n        uint256 highestBid,\n        uint256 highestBindingBid\n    );\n\n    event LogWithdrawal(\n        address withdrawer,\n        address withdrawalAccount,\n        uint256 amount\n    );\n    event LogCanceled();\n\n    constructor(\n        address _owner,\n        uint256 _bidIncrement,\n        // uint256 _instantBuyout,\n        uint256 _bidDuration,\n        string memory _imgUrl\n    ) {\n        require(_bidDuration > 0, \"Block duration must be strictly positive\");\n        require(_owner != address(0), \"Owner must be a valid address\");\n\n        owner = _owner;\n        bidIncrement = _bidIncrement;\n        // instantBuyout = _instantBuyout;\n        startBlock = block.number;\n        bidDuration = _bidDuration;\n        endBlock = startBlock + bidDuration;\n        imgUrl = _imgUrl;\n    }\n\n    function getHighestBid() public view returns (uint256) {\n        return fundsByBidder[highestBidder];\n    }\n\n    // function buyout()\n    //     public\n    //     payable\n    //     onlyAfterStart\n    //     onlyBeforeEnd\n    //     onlyNotCanceled\n    //     onlyNotOwner\n    //     returns (bool success)\n    // {\n    //     // reject payments of 0 ETH\n    //     uint256 funds = fundsByBidder[msg.sender] + msg.value;\n    //     assert(funds >= instantBuyout);\n    // }\n\n    function placeBid()\n        public\n        payable\n        onlyAfterStart\n        onlyBeforeEnd\n        onlyNotCanceled\n        onlyNotOwner\n        returns (bool success)\n    {\n        // reject payments of 0 ETH\n        require(msg.value > 0, \"Bid value must be > 0\");\n\n        // calculate the user's total bid based on the current amount they've sent to the contract\n        // plus whatever has been sent with this transaction\n        uint256 newBid = fundsByBidder[msg.sender] + msg.value;\n\n        // if the user isn't even willing to overbid the highest binding bid, there's nothing for us\n        // to do except revert the transaction.\n        require(\n            newBid > highestBindingBid,\n            \"Bid value must be above previous bid\"\n        );\n\n        // grab the previous highest bid (before updating fundsByBidder, in case msg.sender is the\n        // highestBidder and is just increasing their maximum bid).\n        uint256 highestBid = fundsByBidder[highestBidder];\n\n        fundsByBidder[msg.sender] = newBid;\n\n        if (newBid <= highestBid) {\n            // if the user has overbid the highestBindingBid but not the highestBid, we simply\n            // increase the highestBindingBid and leave highestBidder alone.\n\n            // note that this case is impossible if msg.sender == highestBidder because you can never\n            // bid less ETH than you've already bid.\n\n            highestBindingBid = min(newBid + bidIncrement, highestBid);\n        } else {\n            // if msg.sender is already the highest bidder, they must simply be wanting to raise\n            // their maximum bid, in which case we shouldn't increase the highestBindingBid.\n\n            // if the user is NOT highestBidder, and has overbid highestBid completely, we set them\n            // as the new highestBidder and recalculate highestBindingBid.\n\n            if (msg.sender != highestBidder) {\n                highestBidder = msg.sender;\n                highestBindingBid = min(newBid, highestBid + bidIncrement);\n            }\n            highestBid = newBid;\n        }\n\n        emit LogBid(\n            msg.sender,\n            newBid,\n            highestBidder,\n            highestBid,\n            highestBindingBid\n        );\n        return true;\n    }\n\n    function min(uint256 a, uint256 b) private pure returns (uint256) {\n        if (a < b) return a;\n        return b;\n    }\n\n    function cancelAuction()\n        public\n        onlyOwner\n        onlyBeforeEnd\n        onlyNotCanceled\n        returns (bool success)\n    {\n        canceled = true;\n        emit LogCanceled();\n        return true;\n    }\n\n    function withdraw() public onlyEndedOrCanceled returns (bool success) {\n        address withdrawalAccount;\n        uint256 withdrawalAmount;\n\n        if (canceled) {\n            // if the auction was canceled, everyone should simply be allowed to withdraw their funds\n            withdrawalAccount = msg.sender;\n            withdrawalAmount = fundsByBidder[withdrawalAccount];\n        } else {\n            // the auction finished without being canceled\n\n            if (msg.sender == owner) {\n                // the auction's owner should be allowed to withdraw the highestBindingBid\n                withdrawalAccount = highestBidder;\n                withdrawalAmount = highestBindingBid;\n                ownerHasWithdrawn = true;\n            } else if (msg.sender == highestBidder) {\n                // the highest bidder should only be allowed to withdraw the difference between their\n                // highest bid and the highestBindingBid\n                withdrawalAccount = highestBidder;\n                if (ownerHasWithdrawn) {\n                    withdrawalAmount = fundsByBidder[highestBidder];\n                } else {\n                    withdrawalAmount =\n                        fundsByBidder[highestBidder] -\n                        highestBindingBid;\n                }\n            } else {\n                // anyone who participated but did not win the auction should be allowed to withdraw\n                // the full amount of their funds\n                withdrawalAccount = msg.sender;\n                withdrawalAmount = fundsByBidder[withdrawalAccount];\n            }\n        }\n\n        assert(withdrawalAmount > 0);\n\n        fundsByBidder[withdrawalAccount] -= withdrawalAmount;\n\n        // send the funds\n        assert(payable(msg.sender).send(withdrawalAmount));\n\n        emit LogWithdrawal(msg.sender, withdrawalAccount, withdrawalAmount);\n\n        return true;\n    }\n\n    modifier onlyOwner() {\n        require(msg.sender == owner, \"Sender must be owner\");\n        _;\n    }\n\n    modifier onlyNotOwner() {\n        require(msg.sender != owner, \"Sender cannot be owner\");\n        _;\n    }\n\n    modifier onlyAfterStart() {\n        require(block.number > startBlock, \"Auction must have started\");\n        _;\n    }\n\n    modifier onlyBeforeEnd() {\n        require(\n            block.number <= startBlock + bidDuration,\n            \"Auction cannot have ended\"\n        );\n        _;\n    }\n\n    modifier onlyNotCanceled() {\n        require(!canceled, \"Auction cannot be canceled\");\n        _;\n    }\n\n    modifier onlyEndedOrCanceled() {\n        require(\n            block.number >= (startBlock + bidDuration) || canceled,\n            \"Auction must have ended or been canceled\"\n        );\n        _;\n    }\n}\n",
  "sourcePath": "/Users/nicolasbrugneaux/workspace/celo-connect-2022-applications-workshop/contracts/src/Auction.sol",
  "compiler": {
    "name": "solc",
    "version": "0.8.13+commit.abaa5c0e.Emscripten.clang"
  },
  "schemaVersion": "3.4.6",
  "updatedAt": "2022-04-05T08:16:16.937Z",
  "devdoc": {
    "kind": "dev",
    "methods": {},
    "version": 1
  },
  "userdoc": {
    "kind": "user",
    "methods": {},
    "version": 1
  }
}