{
  "contractName": "Auction",
  "abi": [
    {
      "inputs": [
        {
          "internalType": "address",
          "name": "_owner",
          "type": "address"
        },
        {
          "internalType": "uint256",
          "name": "_bidIncrement",
          "type": "uint256"
        },
        {
          "internalType": "uint256",
          "name": "_startBlock",
          "type": "uint256"
        },
        {
          "internalType": "uint256",
          "name": "_endBlock",
          "type": "uint256"
        },
        {
          "internalType": "string",
          "name": "_imgUrl",
          "type": "string"
        }
      ],
      "stateMutability": "nonpayable",
      "type": "constructor"
    },
    {
      "anonymous": false,
      "inputs": [
        {
          "indexed": false,
          "internalType": "address",
          "name": "bidder",
          "type": "address"
        },
        {
          "indexed": false,
          "internalType": "uint256",
          "name": "bid",
          "type": "uint256"
        },
        {
          "indexed": false,
          "internalType": "address",
          "name": "highestBidder",
          "type": "address"
        },
        {
          "indexed": false,
          "internalType": "uint256",
          "name": "highestBid",
          "type": "uint256"
        },
        {
          "indexed": false,
          "internalType": "uint256",
          "name": "highestBindingBid",
          "type": "uint256"
        }
      ],
      "name": "LogBid",
      "type": "event"
    },
    {
      "anonymous": false,
      "inputs": [],
      "name": "LogCanceled",
      "type": "event"
    },
    {
      "anonymous": false,
      "inputs": [
        {
          "indexed": false,
          "internalType": "address",
          "name": "withdrawer",
          "type": "address"
        },
        {
          "indexed": false,
          "internalType": "address",
          "name": "withdrawalAccount",
          "type": "address"
        },
        {
          "indexed": false,
          "internalType": "uint256",
          "name": "amount",
          "type": "uint256"
        }
      ],
      "name": "LogWithdrawal",
      "type": "event"
    },
    {
      "inputs": [],
      "name": "bidIncrement",
      "outputs": [
        {
          "internalType": "uint256",
          "name": "",
          "type": "uint256"
        }
      ],
      "stateMutability": "view",
      "type": "function"
    },
    {
      "inputs": [],
      "name": "canceled",
      "outputs": [
        {
          "internalType": "bool",
          "name": "",
          "type": "bool"
        }
      ],
      "stateMutability": "view",
      "type": "function"
    },
    {
      "inputs": [],
      "name": "endBlock",
      "outputs": [
        {
          "internalType": "uint256",
          "name": "",
          "type": "uint256"
        }
      ],
      "stateMutability": "view",
      "type": "function"
    },
    {
      "inputs": [
        {
          "internalType": "address",
          "name": "",
          "type": "address"
        }
      ],
      "name": "fundsByBidder",
      "outputs": [
        {
          "internalType": "uint256",
          "name": "",
          "type": "uint256"
        }
      ],
      "stateMutability": "view",
      "type": "function"
    },
    {
      "inputs": [],
      "name": "highestBidder",
      "outputs": [
        {
          "internalType": "address",
          "name": "",
          "type": "address"
        }
      ],
      "stateMutability": "view",
      "type": "function"
    },
    {
      "inputs": [],
      "name": "highestBindingBid",
      "outputs": [
        {
          "internalType": "uint256",
          "name": "",
          "type": "uint256"
        }
      ],
      "stateMutability": "view",
      "type": "function"
    },
    {
      "inputs": [],
      "name": "imgUrl",
      "outputs": [
        {
          "internalType": "string",
          "name": "",
          "type": "string"
        }
      ],
      "stateMutability": "view",
      "type": "function"
    },
    {
      "inputs": [],
      "name": "owner",
      "outputs": [
        {
          "internalType": "address",
          "name": "",
          "type": "address"
        }
      ],
      "stateMutability": "view",
      "type": "function"
    },
    {
      "inputs": [],
      "name": "startBlock",
      "outputs": [
        {
          "internalType": "uint256",
          "name": "",
          "type": "uint256"
        }
      ],
      "stateMutability": "view",
      "type": "function"
    },
    {
      "inputs": [],
      "name": "getHighestBid",
      "outputs": [
        {
          "internalType": "uint256",
          "name": "",
          "type": "uint256"
        }
      ],
      "stateMutability": "view",
      "type": "function"
    },
    {
      "inputs": [],
      "name": "placeBid",
      "outputs": [
        {
          "internalType": "bool",
          "name": "success",
          "type": "bool"
        }
      ],
      "stateMutability": "payable",
      "type": "function"
    },
    {
      "inputs": [],
      "name": "cancelAuction",
      "outputs": [
        {
          "internalType": "bool",
          "name": "success",
          "type": "bool"
        }
      ],
      "stateMutability": "nonpayable",
      "type": "function"
    },
    {
      "inputs": [],
      "name": "withdraw",
      "outputs": [
        {
          "internalType": "bool",
          "name": "success",
          "type": "bool"
        }
      ],
      "stateMutability": "nonpayable",
      "type": "function"
    }
  ],
  "bytecode": "0x60806040523480156200001157600080fd5b50604051620019033803806200190383398181016040528101906200003791906200049a565b8183106200007c576040517f08c379a00000000000000000000000000000000000000000000000000000000081526004016200007390620005c8565b60405180910390fd5b43831015620000c2576040517f08c379a0000000000000000000000000000000000000000000000000000000008152600401620000b99062000660565b60405180910390fd5b600073ffffffffffffffffffffffffffffffffffffffff168573ffffffffffffffffffffffffffffffffffffffff160362000134576040517f08c379a00000000000000000000000000000000000000000000000000000000081526004016200012b90620006d2565b60405180910390fd5b846000806101000a81548173ffffffffffffffffffffffffffffffffffffffff021916908373ffffffffffffffffffffffffffffffffffffffff1602179055508360018190555082600281905550816003819055508060049080519060200190620001a1929190620001ad565b50505050505062000758565b828054620001bb9062000723565b90600052602060002090601f016020900481019282620001df57600085556200022b565b82601f10620001fa57805160ff19168380011785556200022b565b828001600101855582156200022b579182015b828111156200022a5782518255916020019190600101906200020d565b5b5090506200023a91906200023e565b5090565b5b80821115620002595760008160009055506001016200023f565b5090565b6000604051905090565b600080fd5b600080fd5b600073ffffffffffffffffffffffffffffffffffffffff82169050919050565b60006200029e8262000271565b9050919050565b620002b08162000291565b8114620002bc57600080fd5b50565b600081519050620002d081620002a5565b92915050565b6000819050919050565b620002eb81620002d6565b8114620002f757600080fd5b50565b6000815190506200030b81620002e0565b92915050565b600080fd5b600080fd5b6000601f19601f8301169050919050565b7f4e487b7100000000000000000000000000000000000000000000000000000000600052604160045260246000fd5b62000366826200031b565b810181811067ffffffffffffffff821117156200038857620003876200032c565b5b80604052505050565b60006200039d6200025d565b9050620003ab82826200035b565b919050565b600067ffffffffffffffff821115620003ce57620003cd6200032c565b5b620003d9826200031b565b9050602081019050919050565b60005b8381101562000406578082015181840152602081019050620003e9565b8381111562000416576000848401525b50505050565b6000620004336200042d84620003b0565b62000391565b90508281526020810184848401111562000452576200045162000316565b5b6200045f848285620003e6565b509392505050565b600082601f8301126200047f576200047e62000311565b5b8151620004918482602086016200041c565b91505092915050565b600080600080600060a08688031215620004b957620004b862000267565b5b6000620004c988828901620002bf565b9550506020620004dc88828901620002fa565b9450506040620004ef88828901620002fa565b93505060606200050288828901620002fa565b925050608086015167ffffffffffffffff8111156200052657620005256200026c565b5b620005348882890162000467565b9150509295509295909350565b600082825260208201905092915050565b7f537461727420626c6f636b206d757374206265206265666f726520656e64426c60008201527f6f636b0000000000000000000000000000000000000000000000000000000000602082015250565b6000620005b060238362000541565b9150620005bd8262000552565b604082019050919050565b60006020820190508181036000830152620005e381620005a1565b9050919050565b7f537461727420626c6f636b206d757374206e6f7420626520696e20746865207060008201527f6173740000000000000000000000000000000000000000000000000000000000602082015250565b60006200064860238362000541565b91506200065582620005ea565b604082019050919050565b600060208201905081810360008301526200067b8162000639565b9050919050565b7f4f776e6572206d75737420626520612076616c69642061646472657373000000600082015250565b6000620006ba601d8362000541565b9150620006c78262000682565b602082019050919050565b60006020820190508181036000830152620006ed81620006ab565b9050919050565b7f4e487b7100000000000000000000000000000000000000000000000000000000600052602260045260246000fd5b600060028204905060018216806200073c57607f821691505b602082108103620007525762000751620006f4565b5b50919050565b61119b80620007686000396000f3fe6080604052600436106100c25760003560e01c80638fa8b7901161007f578063ce10cf8011610059578063ce10cf801461024a578063d68387c714610287578063ecfc7ecc146102b2578063f5b56c56146102d0576100c2565b80638fa8b790146101c957806391f90157146101f4578063b3cc167a1461021f576100c2565b8063083c6323146100c75780633ccfd60b146100f25780633f9942ff1461011d57806348cd4cb1146101485780634979440a146101735780638da5cb5b1461019e575b600080fd5b3480156100d357600080fd5b506100dc6102fb565b6040516100e99190610ccf565b60405180910390f35b3480156100fe57600080fd5b50610107610301565b6040516101149190610d05565b60405180910390f35b34801561012957600080fd5b506101326106d0565b60405161013f9190610d05565b60405180910390f35b34801561015457600080fd5b5061015d6106e3565b60405161016a9190610ccf565b60405180910390f35b34801561017f57600080fd5b506101886106e9565b6040516101959190610ccf565b60405180910390f35b3480156101aa57600080fd5b506101b3610752565b6040516101c09190610d61565b60405180910390f35b3480156101d557600080fd5b506101de610776565b6040516101eb9190610d05565b60405180910390f35b34801561020057600080fd5b50610209610854565b6040516102169190610d61565b60405180910390f35b34801561022b57600080fd5b5061023461087a565b6040516102419190610ccf565b60405180910390f35b34801561025657600080fd5b50610271600480360381019061026c9190610dad565b610880565b60405161027e9190610ccf565b60405180910390f35b34801561029357600080fd5b5061029c610898565b6040516102a99190610e73565b60405180910390f35b6102ba610926565b6040516102c79190610d05565b60405180910390f35b3480156102dc57600080fd5b506102e5610c94565b6040516102f29190610ccf565b60405180910390f35b60035481565b6000600354431015806103205750600560009054906101000a900460ff165b61032d5761032c610e95565b5b600080600560009054906101000a900460ff161561038f57339150600860008373ffffffffffffffffffffffffffffffffffffffff1673ffffffffffffffffffffffffffffffffffffffff1681526020019081526020016000205490506105e3565b60008054906101000a900473ffffffffffffffffffffffffffffffffffffffff1673ffffffffffffffffffffffffffffffffffffffff163373ffffffffffffffffffffffffffffffffffffffff160361042c57600760009054906101000a900473ffffffffffffffffffffffffffffffffffffffff16915060065490506001600960006101000a81548160ff0219169083151502179055506105e2565b600760009054906101000a900473ffffffffffffffffffffffffffffffffffffffff1673ffffffffffffffffffffffffffffffffffffffff163373ffffffffffffffffffffffffffffffffffffffff160361059b57600760009054906101000a900473ffffffffffffffffffffffffffffffffffffffff169150600960009054906101000a900460ff16156105245760086000600760009054906101000a900473ffffffffffffffffffffffffffffffffffffffff1673ffffffffffffffffffffffffffffffffffffffff1673ffffffffffffffffffffffffffffffffffffffff168152602001908152602001600020549050610596565b60065460086000600760009054906101000a900473ffffffffffffffffffffffffffffffffffffffff1673ffffffffffffffffffffffffffffffffffffffff1673ffffffffffffffffffffffffffffffffffffffff168152602001908152602001600020546105939190610ef3565b90505b6105e1565b339150600860008373ffffffffffffffffffffffffffffffffffffffff1673ffffffffffffffffffffffffffffffffffffffff1681526020019081526020016000205490505b5b5b600081116105f4576105f3610e95565b5b80600860008473ffffffffffffffffffffffffffffffffffffffff1673ffffffffffffffffffffffffffffffffffffffff16815260200190815260200160002060008282546106439190610ef3565b925050819055503373ffffffffffffffffffffffffffffffffffffffff166108fc829081150290604051600060405180830381858888f1935050505061068c5761068b610e95565b5b7f0ec497a8ae5b1ba29c60470ef651def995fac3deebbdcc56c47a4e5f51a4c2bd3383836040516106bf93929190610f27565b60405180910390a160019250505090565b600560009054906101000a900460ff1681565b60025481565b600060086000600760009054906101000a900473ffffffffffffffffffffffffffffffffffffffff1673ffffffffffffffffffffffffffffffffffffffff1673ffffffffffffffffffffffffffffffffffffffff16815260200190815260200160002054905090565b60008054906101000a900473ffffffffffffffffffffffffffffffffffffffff1681565b60008060009054906101000a900473ffffffffffffffffffffffffffffffffffffffff1673ffffffffffffffffffffffffffffffffffffffff163373ffffffffffffffffffffffffffffffffffffffff16146107d5576107d4610e95565b5b6003544311156107e8576107e7610e95565b5b600560009054906101000a900460ff161561080657610805610e95565b5b6001600560006101000a81548160ff0219169083151502179055507f462b6ca7f632601af1295aeb320851f50e8e630a309173f23535845ea4bfb3b960405160405180910390a16001905090565b600760009054906101000a900473ffffffffffffffffffffffffffffffffffffffff1681565b60015481565b60086020528060005260406000206000915090505481565b600480546108a590610f8d565b80601f01602080910402602001604051908101604052809291908181526020018280546108d190610f8d565b801561091e5780601f106108f35761010080835404028352916020019161091e565b820191906000526020600020905b81548152906001019060200180831161090157829003601f168201915b505050505081565b6000600254431161093a57610939610e95565b5b60035443111561094d5761094c610e95565b5b600560009054906101000a900460ff161561096b5761096a610e95565b5b60008054906101000a900473ffffffffffffffffffffffffffffffffffffffff1673ffffffffffffffffffffffffffffffffffffffff163373ffffffffffffffffffffffffffffffffffffffff16036109c7576109c6610e95565b5b60003411610a0a576040517f08c379a0000000000000000000000000000000000000000000000000000000008152600401610a019061100a565b60405180910390fd5b600034600860003373ffffffffffffffffffffffffffffffffffffffff1673ffffffffffffffffffffffffffffffffffffffff16815260200190815260200160002054610a57919061102a565b90506006548111610a9d576040517f08c379a0000000000000000000000000000000000000000000000000000000008152600401610a94906110f2565b60405180910390fd5b600060086000600760009054906101000a900473ffffffffffffffffffffffffffffffffffffffff1673ffffffffffffffffffffffffffffffffffffffff1673ffffffffffffffffffffffffffffffffffffffff16815260200190815260200160002054905081600860003373ffffffffffffffffffffffffffffffffffffffff1673ffffffffffffffffffffffffffffffffffffffff16815260200190815260200160002081905550808211610b7057610b6560015483610b5f919061102a565b82610c9a565b600681905550610c28565b600760009054906101000a900473ffffffffffffffffffffffffffffffffffffffff1673ffffffffffffffffffffffffffffffffffffffff163373ffffffffffffffffffffffffffffffffffffffff1614610c245733600760006101000a81548173ffffffffffffffffffffffffffffffffffffffff021916908373ffffffffffffffffffffffffffffffffffffffff160217905550610c1d8260015483610c18919061102a565b610c9a565b6006819055505b8190505b7ff152f4ff5e488c55370a2d53925a55055228ebd8ec95bd0251bbb299e48786b03383600760009054906101000a900473ffffffffffffffffffffffffffffffffffffffff1684600654604051610c83959493929190611112565b60405180910390a160019250505090565b60065481565b600081831015610cac57829050610cb0565b8190505b92915050565b6000819050919050565b610cc981610cb6565b82525050565b6000602082019050610ce46000830184610cc0565b92915050565b60008115159050919050565b610cff81610cea565b82525050565b6000602082019050610d1a6000830184610cf6565b92915050565b600073ffffffffffffffffffffffffffffffffffffffff82169050919050565b6000610d4b82610d20565b9050919050565b610d5b81610d40565b82525050565b6000602082019050610d766000830184610d52565b92915050565b600080fd5b610d8a81610d40565b8114610d9557600080fd5b50565b600081359050610da781610d81565b92915050565b600060208284031215610dc357610dc2610d7c565b5b6000610dd184828501610d98565b91505092915050565b600081519050919050565b600082825260208201905092915050565b60005b83811015610e14578082015181840152602081019050610df9565b83811115610e23576000848401525b50505050565b6000601f19601f8301169050919050565b6000610e4582610dda565b610e4f8185610de5565b9350610e5f818560208601610df6565b610e6881610e29565b840191505092915050565b60006020820190508181036000830152610e8d8184610e3a565b905092915050565b7f4e487b7100000000000000000000000000000000000000000000000000000000600052600160045260246000fd5b7f4e487b7100000000000000000000000000000000000000000000000000000000600052601160045260246000fd5b6000610efe82610cb6565b9150610f0983610cb6565b925082821015610f1c57610f1b610ec4565b5b828203905092915050565b6000606082019050610f3c6000830186610d52565b610f496020830185610d52565b610f566040830184610cc0565b949350505050565b7f4e487b7100000000000000000000000000000000000000000000000000000000600052602260045260246000fd5b60006002820490506001821680610fa557607f821691505b602082108103610fb857610fb7610f5e565b5b50919050565b7f4269642076616c7565206d757374206265203e20300000000000000000000000600082015250565b6000610ff4601583610de5565b9150610fff82610fbe565b602082019050919050565b6000602082019050818103600083015261102381610fe7565b9050919050565b600061103582610cb6565b915061104083610cb6565b9250827fffffffffffffffffffffffffffffffffffffffffffffffffffffffffffffffff0382111561107557611074610ec4565b5b828201905092915050565b7f4269642076616c7565206d7573742062652061626f76652070726576696f757360008201527f2062696400000000000000000000000000000000000000000000000000000000602082015250565b60006110dc602483610de5565b91506110e782611080565b604082019050919050565b6000602082019050818103600083015261110b816110cf565b9050919050565b600060a0820190506111276000830188610d52565b6111346020830187610cc0565b6111416040830186610d52565b61114e6060830185610cc0565b61115b6080830184610cc0565b969550505050505056fea26469706673582212209bdce19688c2a50623ca3315012f68c946a2c1cb75d87f95e8a64d03789c6c0964736f6c634300080d0033",
  "immutableReferences": {},
  "source": "// SPDX-License-Identifier: MIT\npragma solidity >=0.4.22 <0.9.0;\n\ncontract Auction {\n    // static\n    address public owner;\n    uint256 public bidIncrement;\n    // uint256 public instantBuyout;\n    uint256 public startBlock;\n    uint256 public endBlock;\n    string public imgUrl;\n\n    // state\n    bool public canceled;\n    uint256 public highestBindingBid;\n    address public highestBidder;\n    mapping(address => uint256) public fundsByBidder;\n    bool ownerHasWithdrawn;\n\n    event LogBid(\n        address bidder,\n        uint256 bid,\n        address highestBidder,\n        uint256 highestBid,\n        uint256 highestBindingBid\n    );\n\n    event LogWithdrawal(\n        address withdrawer,\n        address withdrawalAccount,\n        uint256 amount\n    );\n    event LogCanceled();\n\n    constructor(\n        address _owner,\n        uint256 _bidIncrement,\n        // uint256 _instantBuyout,\n        uint256 _startBlock,\n        uint256 _endBlock,\n        string memory _imgUrl\n    ) {\n        require(_startBlock < _endBlock, \"Start block must be before endBlock\");\n        require(\n            _startBlock >= block.number,\n            \"Start block must not be in the past\"\n        );\n        require(_owner != address(0), \"Owner must be a valid address\");\n\n        owner = _owner;\n        bidIncrement = _bidIncrement;\n        // instantBuyout = _instantBuyout;\n        startBlock = _startBlock;\n        endBlock = _endBlock;\n        imgUrl = _imgUrl;\n    }\n\n    function getHighestBid() public view returns (uint256) {\n        return fundsByBidder[highestBidder];\n    }\n\n    // function buyout()\n    //     public\n    //     payable\n    //     onlyAfterStart\n    //     onlyBeforeEnd\n    //     onlyNotCanceled\n    //     onlyNotOwner\n    //     returns (bool success)\n    // {\n    //     // reject payments of 0 ETH\n    //     uint256 funds = fundsByBidder[msg.sender] + msg.value;\n    //     assert(funds >= instantBuyout);\n    // }\n\n    function placeBid()\n        public\n        payable\n        onlyAfterStart\n        onlyBeforeEnd\n        onlyNotCanceled\n        onlyNotOwner\n        returns (bool success)\n    {\n        // reject payments of 0 ETH\n        require(msg.value > 0, \"Bid value must be > 0\");\n\n        // calculate the user's total bid based on the current amount they've sent to the contract\n        // plus whatever has been sent with this transaction\n        uint256 newBid = fundsByBidder[msg.sender] + msg.value;\n\n        // if the user isn't even willing to overbid the highest binding bid, there's nothing for us\n        // to do except revert the transaction.\n        require(\n            newBid > highestBindingBid,\n            \"Bid value must be above previous bid\"\n        );\n\n        // grab the previous highest bid (before updating fundsByBidder, in case msg.sender is the\n        // highestBidder and is just increasing their maximum bid).\n        uint256 highestBid = fundsByBidder[highestBidder];\n\n        fundsByBidder[msg.sender] = newBid;\n\n        if (newBid <= highestBid) {\n            // if the user has overbid the highestBindingBid but not the highestBid, we simply\n            // increase the highestBindingBid and leave highestBidder alone.\n\n            // note that this case is impossible if msg.sender == highestBidder because you can never\n            // bid less ETH than you've already bid.\n\n            highestBindingBid = min(newBid + bidIncrement, highestBid);\n        } else {\n            // if msg.sender is already the highest bidder, they must simply be wanting to raise\n            // their maximum bid, in which case we shouldn't increase the highestBindingBid.\n\n            // if the user is NOT highestBidder, and has overbid highestBid completely, we set them\n            // as the new highestBidder and recalculate highestBindingBid.\n\n            if (msg.sender != highestBidder) {\n                highestBidder = msg.sender;\n                highestBindingBid = min(newBid, highestBid + bidIncrement);\n            }\n            highestBid = newBid;\n        }\n\n        emit LogBid(\n            msg.sender,\n            newBid,\n            highestBidder,\n            highestBid,\n            highestBindingBid\n        );\n        return true;\n    }\n\n    function min(uint256 a, uint256 b) private pure returns (uint256) {\n        if (a < b) return a;\n        return b;\n    }\n\n    function cancelAuction()\n        public\n        onlyOwner\n        onlyBeforeEnd\n        onlyNotCanceled\n        returns (bool success)\n    {\n        canceled = true;\n        emit LogCanceled();\n        return true;\n    }\n\n    function withdraw() public onlyEndedOrCanceled returns (bool success) {\n        address withdrawalAccount;\n        uint256 withdrawalAmount;\n\n        if (canceled) {\n            // if the auction was canceled, everyone should simply be allowed to withdraw their funds\n            withdrawalAccount = msg.sender;\n            withdrawalAmount = fundsByBidder[withdrawalAccount];\n        } else {\n            // the auction finished without being canceled\n\n            if (msg.sender == owner) {\n                // the auction's owner should be allowed to withdraw the highestBindingBid\n                withdrawalAccount = highestBidder;\n                withdrawalAmount = highestBindingBid;\n                ownerHasWithdrawn = true;\n            } else if (msg.sender == highestBidder) {\n                // the highest bidder should only be allowed to withdraw the difference between their\n                // highest bid and the highestBindingBid\n                withdrawalAccount = highestBidder;\n                if (ownerHasWithdrawn) {\n                    withdrawalAmount = fundsByBidder[highestBidder];\n                } else {\n                    withdrawalAmount =\n                        fundsByBidder[highestBidder] -\n                        highestBindingBid;\n                }\n            } else {\n                // anyone who participated but did not win the auction should be allowed to withdraw\n                // the full amount of their funds\n                withdrawalAccount = msg.sender;\n                withdrawalAmount = fundsByBidder[withdrawalAccount];\n            }\n        }\n\n        assert(withdrawalAmount > 0);\n\n        fundsByBidder[withdrawalAccount] -= withdrawalAmount;\n\n        // send the funds\n        assert(payable(msg.sender).send(withdrawalAmount));\n\n        emit LogWithdrawal(msg.sender, withdrawalAccount, withdrawalAmount);\n\n        return true;\n    }\n\n    modifier onlyOwner() {\n        assert(msg.sender == owner);\n        _;\n    }\n\n    modifier onlyNotOwner() {\n        assert(msg.sender != owner);\n        _;\n    }\n\n    modifier onlyAfterStart() {\n        assert(block.number > startBlock);\n        _;\n    }\n\n    modifier onlyBeforeEnd() {\n        assert(block.number <= endBlock);\n        _;\n    }\n\n    modifier onlyNotCanceled() {\n        assert(!canceled);\n        _;\n    }\n\n    modifier onlyEndedOrCanceled() {\n        assert(block.number >= endBlock || canceled);\n        _;\n    }\n}\n",
  "sourcePath": "/Users/nicolasbrugneaux/workspace/celo-connect-2022-applications-workshop/contracts/Auction.sol",
  "compiler": {
    "name": "solc",
    "version": "0.8.13+commit.abaa5c0e.Emscripten.clang"
  },
  "schemaVersion": "3.4.6",
  "updatedAt": "2022-03-22T17:08:30.541Z",
  "devdoc": {
    "kind": "dev",
    "methods": {},
    "version": 1
  },
  "userdoc": {
    "kind": "user",
    "methods": {},
    "version": 1
  }
}