{
  "contractName": "AuctionFactory",
  "abi": [
    {
      "inputs": [],
      "stateMutability": "nonpayable",
      "type": "constructor"
    },
    {
      "anonymous": false,
      "inputs": [
        {
          "indexed": false,
          "internalType": "address",
          "name": "auctionContract",
          "type": "address"
        },
        {
          "indexed": false,
          "internalType": "address",
          "name": "owner",
          "type": "address"
        },
        {
          "indexed": false,
          "internalType": "uint256",
          "name": "numAuctions",
          "type": "uint256"
        },
        {
          "indexed": false,
          "internalType": "address[]",
          "name": "allAuctions",
          "type": "address[]"
        }
      ],
      "name": "AuctionCreated",
      "type": "event"
    },
    {
      "inputs": [
        {
          "internalType": "uint256",
          "name": "",
          "type": "uint256"
        }
      ],
      "name": "auctions",
      "outputs": [
        {
          "internalType": "address",
          "name": "",
          "type": "address"
        }
      ],
      "stateMutability": "view",
      "type": "function",
      "constant": true
    },
    {
      "inputs": [
        {
          "internalType": "uint256",
          "name": "bidIncrement",
          "type": "uint256"
        },
        {
          "internalType": "uint256",
          "name": "startBlock",
          "type": "uint256"
        },
        {
          "internalType": "uint256",
          "name": "endBlock",
          "type": "uint256"
        },
        {
          "internalType": "string",
          "name": "imgUrl",
          "type": "string"
        }
      ],
      "name": "createAuction",
      "outputs": [],
      "stateMutability": "nonpayable",
      "type": "function"
    },
    {
      "inputs": [],
      "name": "allAuctions",
      "outputs": [
        {
          "internalType": "address[]",
          "name": "",
          "type": "address[]"
        }
      ],
      "stateMutability": "view",
      "type": "function",
      "constant": true
    }
  ],
  "bytecode": "0x608060405234801561001057600080fd5b506121f2806100206000396000f3fe60806040523480156200001157600080fd5b5060043610620000465760003560e01c806315cda1af146200004b5780631bbcd4a5146200006b578063571a26a0146200008d575b600080fd5b62000069600480360381019062000063919062000446565b620000c3565b005b62000075620001b7565b604051620000849190620005d9565b60405180910390f35b620000ab6004803603810190620000a59190620005fd565b62000247565b604051620000ba919062000640565b60405180910390f35b60003385858585604051620000d89062000287565b620000e895949392919062000701565b604051809103906000f08015801562000105573d6000803e3d6000fd5b5090506000819080600181540180825580915050600190039060005260206000200160009091909190916101000a81548173ffffffffffffffffffffffffffffffffffffffff021916908373ffffffffffffffffffffffffffffffffffffffff1602179055507f0d314047f0d1e39dbbd521f0844c35332083a15926b906540faa68e1a4262b6881336000805490506000604051620001a8949392919062000865565b60405180910390a15050505050565b606060008054806020026020016040519081016040528092919081815260200182805480156200023d57602002820191906000526020600020905b8160009054906101000a900473ffffffffffffffffffffffffffffffffffffffff1673ffffffffffffffffffffffffffffffffffffffff1681526020019060010190808311620001f2575b5050505050905090565b600081815481106200025857600080fd5b906000526020600020016000915054906101000a900473ffffffffffffffffffffffffffffffffffffffff1681565b61190380620008ba83390190565b6000604051905090565b600080fd5b600080fd5b6000819050919050565b620002be81620002a9565b8114620002ca57600080fd5b50565b600081359050620002de81620002b3565b92915050565b600080fd5b600080fd5b6000601f19601f8301169050919050565b7f4e487b7100000000000000000000000000000000000000000000000000000000600052604160045260246000fd5b6200033982620002ee565b810181811067ffffffffffffffff821117156200035b576200035a620002ff565b5b80604052505050565b60006200037062000295565b90506200037e82826200032e565b919050565b600067ffffffffffffffff821115620003a157620003a0620002ff565b5b620003ac82620002ee565b9050602081019050919050565b82818337600083830152505050565b6000620003df620003d98462000383565b62000364565b905082815260208101848484011115620003fe57620003fd620002e9565b5b6200040b848285620003b9565b509392505050565b600082601f8301126200042b576200042a620002e4565b5b81356200043d848260208601620003c8565b91505092915050565b600080600080608085870312156200046357620004626200029f565b5b60006200047387828801620002cd565b94505060206200048687828801620002cd565b93505060406200049987828801620002cd565b925050606085013567ffffffffffffffff811115620004bd57620004bc620002a4565b5b620004cb8782880162000413565b91505092959194509250565b600081519050919050565b600082825260208201905092915050565b6000819050602082019050919050565b600073ffffffffffffffffffffffffffffffffffffffff82169050919050565b6000620005308262000503565b9050919050565b620005428162000523565b82525050565b600062000556838362000537565b60208301905092915050565b6000602082019050919050565b60006200057c82620004d7565b620005888185620004e2565b93506200059583620004f3565b8060005b83811015620005cc578151620005b0888262000548565b9750620005bd8362000562565b92505060018101905062000599565b5085935050505092915050565b60006020820190508181036000830152620005f581846200056f565b905092915050565b6000602082840312156200061657620006156200029f565b5b60006200062684828501620002cd565b91505092915050565b6200063a8162000523565b82525050565b60006020820190506200065760008301846200062f565b92915050565b6200066881620002a9565b82525050565b600081519050919050565b600082825260208201905092915050565b60005b83811015620006aa5780820151818401526020810190506200068d565b83811115620006ba576000848401525b50505050565b6000620006cd826200066e565b620006d9818562000679565b9350620006eb8185602086016200068a565b620006f681620002ee565b840191505092915050565b600060a0820190506200071860008301886200062f565b6200072760208301876200065d565b6200073660408301866200065d565b6200074560608301856200065d565b8181036080830152620007598184620006c0565b90509695505050505050565b600081549050919050565b60008190508160005260206000209050919050565b60008160001c9050919050565b600073ffffffffffffffffffffffffffffffffffffffff82169050919050565b6000620007c9620007c38362000785565b62000792565b9050919050565b6000620007de8254620007b2565b9050919050565b6000600182019050919050565b6000620007ff8262000765565b6200080b8185620004e2565b9350620008188362000770565b8060005b8381101562000858576200083082620007d0565b6200083c888262000548565b97506200084983620007e5565b9250506001810190506200081c565b5085935050505092915050565b60006080820190506200087c60008301876200062f565b6200088b60208301866200062f565b6200089a60408301856200065d565b8181036060830152620008ae8184620007f2565b90509594505050505056fe60806040523480156200001157600080fd5b50604051620019033803806200190383398181016040528101906200003791906200049a565b8183106200007c576040517f08c379a00000000000000000000000000000000000000000000000000000000081526004016200007390620005c8565b60405180910390fd5b43831015620000c2576040517f08c379a0000000000000000000000000000000000000000000000000000000008152600401620000b99062000660565b60405180910390fd5b600073ffffffffffffffffffffffffffffffffffffffff168573ffffffffffffffffffffffffffffffffffffffff160362000134576040517f08c379a00000000000000000000000000000000000000000000000000000000081526004016200012b90620006d2565b60405180910390fd5b846000806101000a81548173ffffffffffffffffffffffffffffffffffffffff021916908373ffffffffffffffffffffffffffffffffffffffff1602179055508360018190555082600281905550816003819055508060049080519060200190620001a1929190620001ad565b50505050505062000758565b828054620001bb9062000723565b90600052602060002090601f016020900481019282620001df57600085556200022b565b82601f10620001fa57805160ff19168380011785556200022b565b828001600101855582156200022b579182015b828111156200022a5782518255916020019190600101906200020d565b5b5090506200023a91906200023e565b5090565b5b80821115620002595760008160009055506001016200023f565b5090565b6000604051905090565b600080fd5b600080fd5b600073ffffffffffffffffffffffffffffffffffffffff82169050919050565b60006200029e8262000271565b9050919050565b620002b08162000291565b8114620002bc57600080fd5b50565b600081519050620002d081620002a5565b92915050565b6000819050919050565b620002eb81620002d6565b8114620002f757600080fd5b50565b6000815190506200030b81620002e0565b92915050565b600080fd5b600080fd5b6000601f19601f8301169050919050565b7f4e487b7100000000000000000000000000000000000000000000000000000000600052604160045260246000fd5b62000366826200031b565b810181811067ffffffffffffffff821117156200038857620003876200032c565b5b80604052505050565b60006200039d6200025d565b9050620003ab82826200035b565b919050565b600067ffffffffffffffff821115620003ce57620003cd6200032c565b5b620003d9826200031b565b9050602081019050919050565b60005b8381101562000406578082015181840152602081019050620003e9565b8381111562000416576000848401525b50505050565b6000620004336200042d84620003b0565b62000391565b90508281526020810184848401111562000452576200045162000316565b5b6200045f848285620003e6565b509392505050565b600082601f8301126200047f576200047e62000311565b5b8151620004918482602086016200041c565b91505092915050565b600080600080600060a08688031215620004b957620004b862000267565b5b6000620004c988828901620002bf565b9550506020620004dc88828901620002fa565b9450506040620004ef88828901620002fa565b93505060606200050288828901620002fa565b925050608086015167ffffffffffffffff8111156200052657620005256200026c565b5b620005348882890162000467565b9150509295509295909350565b600082825260208201905092915050565b7f537461727420626c6f636b206d757374206265206265666f726520656e64426c60008201527f6f636b0000000000000000000000000000000000000000000000000000000000602082015250565b6000620005b060238362000541565b9150620005bd8262000552565b604082019050919050565b60006020820190508181036000830152620005e381620005a1565b9050919050565b7f537461727420626c6f636b206d757374206e6f7420626520696e20746865207060008201527f6173740000000000000000000000000000000000000000000000000000000000602082015250565b60006200064860238362000541565b91506200065582620005ea565b604082019050919050565b600060208201905081810360008301526200067b8162000639565b9050919050565b7f4f776e6572206d75737420626520612076616c69642061646472657373000000600082015250565b6000620006ba601d8362000541565b9150620006c78262000682565b602082019050919050565b60006020820190508181036000830152620006ed81620006ab565b9050919050565b7f4e487b7100000000000000000000000000000000000000000000000000000000600052602260045260246000fd5b600060028204905060018216806200073c57607f821691505b602082108103620007525762000751620006f4565b5b50919050565b61119b80620007686000396000f3fe6080604052600436106100c25760003560e01c80638fa8b7901161007f578063ce10cf8011610059578063ce10cf801461024a578063d68387c714610287578063ecfc7ecc146102b2578063f5b56c56146102d0576100c2565b80638fa8b790146101c957806391f90157146101f4578063b3cc167a1461021f576100c2565b8063083c6323146100c75780633ccfd60b146100f25780633f9942ff1461011d57806348cd4cb1146101485780634979440a146101735780638da5cb5b1461019e575b600080fd5b3480156100d357600080fd5b506100dc6102fb565b6040516100e99190610ccf565b60405180910390f35b3480156100fe57600080fd5b50610107610301565b6040516101149190610d05565b60405180910390f35b34801561012957600080fd5b506101326106d0565b60405161013f9190610d05565b60405180910390f35b34801561015457600080fd5b5061015d6106e3565b60405161016a9190610ccf565b60405180910390f35b34801561017f57600080fd5b506101886106e9565b6040516101959190610ccf565b60405180910390f35b3480156101aa57600080fd5b506101b3610752565b6040516101c09190610d61565b60405180910390f35b3480156101d557600080fd5b506101de610776565b6040516101eb9190610d05565b60405180910390f35b34801561020057600080fd5b50610209610854565b6040516102169190610d61565b60405180910390f35b34801561022b57600080fd5b5061023461087a565b6040516102419190610ccf565b60405180910390f35b34801561025657600080fd5b50610271600480360381019061026c9190610dad565b610880565b60405161027e9190610ccf565b60405180910390f35b34801561029357600080fd5b5061029c610898565b6040516102a99190610e73565b60405180910390f35b6102ba610926565b6040516102c79190610d05565b60405180910390f35b3480156102dc57600080fd5b506102e5610c94565b6040516102f29190610ccf565b60405180910390f35b60035481565b6000600354431015806103205750600560009054906101000a900460ff165b61032d5761032c610e95565b5b600080600560009054906101000a900460ff161561038f57339150600860008373ffffffffffffffffffffffffffffffffffffffff1673ffffffffffffffffffffffffffffffffffffffff1681526020019081526020016000205490506105e3565b60008054906101000a900473ffffffffffffffffffffffffffffffffffffffff1673ffffffffffffffffffffffffffffffffffffffff163373ffffffffffffffffffffffffffffffffffffffff160361042c57600760009054906101000a900473ffffffffffffffffffffffffffffffffffffffff16915060065490506001600960006101000a81548160ff0219169083151502179055506105e2565b600760009054906101000a900473ffffffffffffffffffffffffffffffffffffffff1673ffffffffffffffffffffffffffffffffffffffff163373ffffffffffffffffffffffffffffffffffffffff160361059b57600760009054906101000a900473ffffffffffffffffffffffffffffffffffffffff169150600960009054906101000a900460ff16156105245760086000600760009054906101000a900473ffffffffffffffffffffffffffffffffffffffff1673ffffffffffffffffffffffffffffffffffffffff1673ffffffffffffffffffffffffffffffffffffffff168152602001908152602001600020549050610596565b60065460086000600760009054906101000a900473ffffffffffffffffffffffffffffffffffffffff1673ffffffffffffffffffffffffffffffffffffffff1673ffffffffffffffffffffffffffffffffffffffff168152602001908152602001600020546105939190610ef3565b90505b6105e1565b339150600860008373ffffffffffffffffffffffffffffffffffffffff1673ffffffffffffffffffffffffffffffffffffffff1681526020019081526020016000205490505b5b5b600081116105f4576105f3610e95565b5b80600860008473ffffffffffffffffffffffffffffffffffffffff1673ffffffffffffffffffffffffffffffffffffffff16815260200190815260200160002060008282546106439190610ef3565b925050819055503373ffffffffffffffffffffffffffffffffffffffff166108fc829081150290604051600060405180830381858888f1935050505061068c5761068b610e95565b5b7f0ec497a8ae5b1ba29c60470ef651def995fac3deebbdcc56c47a4e5f51a4c2bd3383836040516106bf93929190610f27565b60405180910390a160019250505090565b600560009054906101000a900460ff1681565b60025481565b600060086000600760009054906101000a900473ffffffffffffffffffffffffffffffffffffffff1673ffffffffffffffffffffffffffffffffffffffff1673ffffffffffffffffffffffffffffffffffffffff16815260200190815260200160002054905090565b60008054906101000a900473ffffffffffffffffffffffffffffffffffffffff1681565b60008060009054906101000a900473ffffffffffffffffffffffffffffffffffffffff1673ffffffffffffffffffffffffffffffffffffffff163373ffffffffffffffffffffffffffffffffffffffff16146107d5576107d4610e95565b5b6003544311156107e8576107e7610e95565b5b600560009054906101000a900460ff161561080657610805610e95565b5b6001600560006101000a81548160ff0219169083151502179055507f462b6ca7f632601af1295aeb320851f50e8e630a309173f23535845ea4bfb3b960405160405180910390a16001905090565b600760009054906101000a900473ffffffffffffffffffffffffffffffffffffffff1681565b60015481565b60086020528060005260406000206000915090505481565b600480546108a590610f8d565b80601f01602080910402602001604051908101604052809291908181526020018280546108d190610f8d565b801561091e5780601f106108f35761010080835404028352916020019161091e565b820191906000526020600020905b81548152906001019060200180831161090157829003601f168201915b505050505081565b6000600254431161093a57610939610e95565b5b60035443111561094d5761094c610e95565b5b600560009054906101000a900460ff161561096b5761096a610e95565b5b60008054906101000a900473ffffffffffffffffffffffffffffffffffffffff1673ffffffffffffffffffffffffffffffffffffffff163373ffffffffffffffffffffffffffffffffffffffff16036109c7576109c6610e95565b5b60003411610a0a576040517f08c379a0000000000000000000000000000000000000000000000000000000008152600401610a019061100a565b60405180910390fd5b600034600860003373ffffffffffffffffffffffffffffffffffffffff1673ffffffffffffffffffffffffffffffffffffffff16815260200190815260200160002054610a57919061102a565b90506006548111610a9d576040517f08c379a0000000000000000000000000000000000000000000000000000000008152600401610a94906110f2565b60405180910390fd5b600060086000600760009054906101000a900473ffffffffffffffffffffffffffffffffffffffff1673ffffffffffffffffffffffffffffffffffffffff1673ffffffffffffffffffffffffffffffffffffffff16815260200190815260200160002054905081600860003373ffffffffffffffffffffffffffffffffffffffff1673ffffffffffffffffffffffffffffffffffffffff16815260200190815260200160002081905550808211610b7057610b6560015483610b5f919061102a565b82610c9a565b600681905550610c28565b600760009054906101000a900473ffffffffffffffffffffffffffffffffffffffff1673ffffffffffffffffffffffffffffffffffffffff163373ffffffffffffffffffffffffffffffffffffffff1614610c245733600760006101000a81548173ffffffffffffffffffffffffffffffffffffffff021916908373ffffffffffffffffffffffffffffffffffffffff160217905550610c1d8260015483610c18919061102a565b610c9a565b6006819055505b8190505b7ff152f4ff5e488c55370a2d53925a55055228ebd8ec95bd0251bbb299e48786b03383600760009054906101000a900473ffffffffffffffffffffffffffffffffffffffff1684600654604051610c83959493929190611112565b60405180910390a160019250505090565b60065481565b600081831015610cac57829050610cb0565b8190505b92915050565b6000819050919050565b610cc981610cb6565b82525050565b6000602082019050610ce46000830184610cc0565b92915050565b60008115159050919050565b610cff81610cea565b82525050565b6000602082019050610d1a6000830184610cf6565b92915050565b600073ffffffffffffffffffffffffffffffffffffffff82169050919050565b6000610d4b82610d20565b9050919050565b610d5b81610d40565b82525050565b6000602082019050610d766000830184610d52565b92915050565b600080fd5b610d8a81610d40565b8114610d9557600080fd5b50565b600081359050610da781610d81565b92915050565b600060208284031215610dc357610dc2610d7c565b5b6000610dd184828501610d98565b91505092915050565b600081519050919050565b600082825260208201905092915050565b60005b83811015610e14578082015181840152602081019050610df9565b83811115610e23576000848401525b50505050565b6000601f19601f8301169050919050565b6000610e4582610dda565b610e4f8185610de5565b9350610e5f818560208601610df6565b610e6881610e29565b840191505092915050565b60006020820190508181036000830152610e8d8184610e3a565b905092915050565b7f4e487b7100000000000000000000000000000000000000000000000000000000600052600160045260246000fd5b7f4e487b7100000000000000000000000000000000000000000000000000000000600052601160045260246000fd5b6000610efe82610cb6565b9150610f0983610cb6565b925082821015610f1c57610f1b610ec4565b5b828203905092915050565b6000606082019050610f3c6000830186610d52565b610f496020830185610d52565b610f566040830184610cc0565b949350505050565b7f4e487b7100000000000000000000000000000000000000000000000000000000600052602260045260246000fd5b60006002820490506001821680610fa557607f821691505b602082108103610fb857610fb7610f5e565b5b50919050565b7f4269642076616c7565206d757374206265203e20300000000000000000000000600082015250565b6000610ff4601583610de5565b9150610fff82610fbe565b602082019050919050565b6000602082019050818103600083015261102381610fe7565b9050919050565b600061103582610cb6565b915061104083610cb6565b9250827fffffffffffffffffffffffffffffffffffffffffffffffffffffffffffffffff0382111561107557611074610ec4565b5b828201905092915050565b7f4269642076616c7565206d7573742062652061626f76652070726576696f757360008201527f2062696400000000000000000000000000000000000000000000000000000000602082015250565b60006110dc602483610de5565b91506110e782611080565b604082019050919050565b6000602082019050818103600083015261110b816110cf565b9050919050565b600060a0820190506111276000830188610d52565b6111346020830187610cc0565b6111416040830186610d52565b61114e6060830185610cc0565b61115b6080830184610cc0565b969550505050505056fea26469706673582212209bdce19688c2a50623ca3315012f68c946a2c1cb75d87f95e8a64d03789c6c0964736f6c634300080d0033a2646970667358221220368adfde93d23ec439acbfd96892fb6a6a5368703e527ea907ef8e1a6982fd7c64736f6c634300080d0033",
  "immutableReferences": {},
  "source": "// SPDX-License-Identifier: MIT\npragma solidity >=0.4.22 <0.9.0;\n\nimport {Auction} from \"./Auction.sol\";\n\ncontract AuctionFactory {\n    address[] public auctions;\n\n    event AuctionCreated(\n        address auctionContract,\n        address owner,\n        uint256 numAuctions,\n        address[] allAuctions\n    );\n\n    constructor() {}\n\n    function createAuction(\n        uint256 bidIncrement,\n        uint256 startBlock,\n        uint256 endBlock,\n        string memory imgUrl\n    ) public {\n        Auction newAuction = new Auction(\n            msg.sender,\n            bidIncrement,\n            startBlock,\n            endBlock,\n            imgUrl\n        );\n        auctions.push(address(newAuction));\n\n        emit AuctionCreated(\n            address(newAuction),\n            msg.sender,\n            auctions.length,\n            auctions\n        );\n    }\n\n    function allAuctions() public view returns (address[] memory) {\n        return auctions;\n    }\n}\n",
  "sourcePath": "/Users/nicolasbrugneaux/workspace/celo-connect-2022-applications-workshop/contracts/AuctionFactory.sol",
  "compiler": {
    "name": "solc",
    "version": "0.8.13+commit.abaa5c0e.Emscripten.clang"
  },
  "schemaVersion": "3.4.6",
  "updatedAt": "2022-03-22T17:25:53.348Z",
  "networkType": "ethereum",
  "devdoc": {
    "kind": "dev",
    "methods": {},
    "version": 1
  },
  "userdoc": {
    "kind": "user",
    "methods": {},
    "version": 1
  }
}